{
  "address": "0x7285bf14271775b777Bc619bD4af9F6E5edcDeA1",
  "abi": [
    {
      "inputs": [],
      "stateMutability": "payable",
      "type": "constructor"
    },
    {
      "inputs": [],
      "name": "NotEnoughEther",
      "type": "error"
    },
    {
      "anonymous": false,
      "inputs": [
        {
          "indexed": true,
          "internalType": "address",
          "name": "player",
          "type": "address"
        },
        {
          "indexed": false,
          "internalType": "uint256",
          "name": "amount",
          "type": "uint256"
        },
        {
          "indexed": false,
          "internalType": "uint256",
          "name": "roll",
          "type": "uint256"
        }
      ],
      "name": "Roll",
      "type": "event"
    },
    {
      "anonymous": false,
      "inputs": [
        {
          "indexed": false,
          "internalType": "address",
          "name": "winner",
          "type": "address"
        },
        {
          "indexed": false,
          "internalType": "uint256",
          "name": "amount",
          "type": "uint256"
        }
      ],
      "name": "Winner",
      "type": "event"
    },
    {
      "inputs": [],
      "name": "nonce",
      "outputs": [
        {
          "internalType": "uint256",
          "name": "",
          "type": "uint256"
        }
      ],
      "stateMutability": "view",
      "type": "function"
    },
    {
      "inputs": [],
      "name": "prize",
      "outputs": [
        {
          "internalType": "uint256",
          "name": "",
          "type": "uint256"
        }
      ],
      "stateMutability": "view",
      "type": "function"
    },
    {
      "inputs": [],
      "name": "rollTheDice",
      "outputs": [],
      "stateMutability": "payable",
      "type": "function"
    },
    {
      "stateMutability": "payable",
      "type": "receive"
    }
  ],
  "transactionHash": "0xc21009d1541e2bccdb88bd7b9381042eb20560495bcb42ef1ea923b61712d021",
  "args": [],
  "numDeployments": 1,
  "solcInputHash": "f718cd5c06ccfd0cee42bf4b1043598f",
  "bytecode": "0x60806040526000808055600155610014610019565b610082565b606461002647600a610035565b6100309190610060565b600155565b808202811582820484141761005a57634e487b7160e01b600052601160045260246000fd5b92915050565b60008261007d57634e487b7160e01b600052601260045260246000fd5b500490565b61055f806100916000396000f3fe6080604052600436106100385760003560e01c80637d789dee14610044578063affed0e01461004e578063e3ac5d261461007657600080fd5b3661003f57005b600080fd5b61004c61008c565b005b34801561005a57600080fd5b5061006460005481565b60405190815260200160405180910390f35b34801561008257600080fd5b5061006460015481565b66071afd498d00003410156100b457604051638a0d377960e01b815260040160405180910390fd5b60006100c16001436103f1565b4090506100f16040518060400160405280600b81526020016a38b0b332b33d333b333b3d60a91b815250436102fd565b600080546040805160208082018690523060601b6bffffffffffffffffffffffff191682840152605480830194909452825180830390940184526074909101909152815191012090610144601083610420565b9050610194604051806040016040528060018152602001600960f81b815250604051806040016040528060128152602001711010102234b1b29023b0b6b2902937b6361d60711b81525083610346565b6000805490806101a383610434565b90915550606490506101b634602861044d565b6101c09190610464565b600160008282546101d19190610478565b9091555050604080513481526020810183905233917f61cfee61b80d296eb67d23740a2278ba7f3d857fe9aa27f1ed9fe4882e254360910160405180910390a2600581111561021f57505050565b600154604051600090339083908381818185875af1925050503d8060008114610264576040519150601f19603f3d011682016040523d82523d6000602084013e610269565b606091505b50509050806102b55760405162461bcd60e51b81526020600482015260146024820152732330b4b632b2103a379039b2b7321022ba3432b960611b604482015260640160405180910390fd5b6102bd610392565b60408051338152602081018490527f9c2270628a9b29d30ae96b6c4c14ed646ee134febdce38a5b77f2bde9cea2e20910160405180910390a15050505050565b61034282826040516024016103139291906104d1565b60408051601f198184030181529190526020810180516001600160e01b0316632d839cb360e21b1790526103ae565b5050565b61038d83838360405160240161035e939291906104f3565b60408051601f198184030181529190526020810180516001600160e01b0316635821efa160e01b1790526103ae565b505050565b606461039f47600a61044d565b6103a99190610464565b600155565b6103b7816103ba565b50565b60006a636f6e736f6c652e6c6f679050600080835160208501845afa505050565b634e487b7160e01b600052601160045260246000fd5b81810381811115610404576104046103db565b92915050565b634e487b7160e01b600052601260045260246000fd5b60008261042f5761042f61040a565b500690565b600060018201610446576104466103db565b5060010190565b8082028115828204841417610404576104046103db565b6000826104735761047361040a565b500490565b80820180821115610404576104046103db565b6000815180845260005b818110156104b157602081850181015186830182015201610495565b506000602082860101526020601f19601f83011685010191505092915050565b6040815260006104e4604083018561048b565b90508260208301529392505050565b606081526000610506606083018661048b565b8281036020840152610518818661048b565b91505082604083015294935050505056fea2646970667358221220314c6198b591cdf3b35659d66c95bace41e96e1a1b40e4e23c866bd6804aa80564736f6c63430008110033",
  "devdoc": {
    "kind": "dev",
    "methods": {},
    "version": 1
  },
  "userdoc": {
    "kind": "user",
    "methods": {},
    "version": 1
  },
  "storageLayout": {
    "storage": [
      {
        "astId": 140,
        "contract": "contracts/DiceGame.sol:DiceGame",
        "label": "nonce",
        "offset": 0,
        "slot": "0",
        "type": "t_uint256"
      },
      {
        "astId": 143,
        "contract": "contracts/DiceGame.sol:DiceGame",
        "label": "prize",
        "offset": 0,
        "slot": "1",
        "type": "t_uint256"
      }
    ],
    "types": {
      "t_uint256": {
        "encoding": "inplace",
        "label": "uint256",
        "numberOfBytes": "32"
      }
    }
  }
}