{
  "address": "0xBaf63BF3F0F1105992a0184093AdB3D4fA5E2635",
  "abi": [
    {
      "inputs": [
        {
          "internalType": "address payable",
          "name": "diceGameAddress",
          "type": "address"
        }
      ],
      "stateMutability": "payable",
      "type": "constructor"
    },
    {
      "inputs": [],
      "name": "NotEnoughEther",
      "type": "error"
    },
    {
      "inputs": [],
      "name": "RollBiggerThanFive",
      "type": "error"
    },
    {
      "anonymous": false,
      "inputs": [
        {
          "indexed": true,
          "internalType": "address",
          "name": "previousOwner",
          "type": "address"
        },
        {
          "indexed": true,
          "internalType": "address",
          "name": "newOwner",
          "type": "address"
        }
      ],
      "name": "OwnershipTransferred",
      "type": "event"
    },
    {
      "inputs": [],
      "name": "diceGame",
      "outputs": [
        {
          "internalType": "contract DiceGame",
          "name": "",
          "type": "address"
        }
      ],
      "stateMutability": "view",
      "type": "function"
    },
    {
      "inputs": [],
      "name": "owner",
      "outputs": [
        {
          "internalType": "address",
          "name": "",
          "type": "address"
        }
      ],
      "stateMutability": "view",
      "type": "function"
    },
    {
      "inputs": [],
      "name": "renounceOwnership",
      "outputs": [],
      "stateMutability": "nonpayable",
      "type": "function"
    },
    {
      "inputs": [],
      "name": "riggedRoll",
      "outputs": [],
      "stateMutability": "payable",
      "type": "function"
    },
    {
      "inputs": [
        {
          "internalType": "address",
          "name": "newOwner",
          "type": "address"
        }
      ],
      "name": "transferOwnership",
      "outputs": [],
      "stateMutability": "nonpayable",
      "type": "function"
    },
    {
      "inputs": [
        {
          "internalType": "address",
          "name": "_addr",
          "type": "address"
        },
        {
          "internalType": "uint256",
          "name": "_amount",
          "type": "uint256"
        }
      ],
      "name": "withdraw",
      "outputs": [],
      "stateMutability": "nonpayable",
      "type": "function"
    },
    {
      "stateMutability": "payable",
      "type": "receive"
    }
  ],
  "transactionHash": "0x42f8588124e8926f4ae2f0a41d61889fdb8e0af18d88f43df21592c577986904",
  "args": [
    "0x7285bf14271775b777Bc619bD4af9F6E5edcDeA1"
  ],
  "numDeployments": 1,
  "solcInputHash": "6f4de05f9abbb971a4771935dc79914e",
  "bytecode": "0x608060405260006002556040516108ac3803806108ac833981016040819052610027916100a5565b61003033610055565b600180546001600160a01b0319166001600160a01b03929092169190911790556100d5565b600080546001600160a01b038381166001600160a01b0319831681178455604051919092169283917f8be0079c531659141344cd1fd0a4f28419497f9722a3daafe3b4186f6b6457e09190a35050565b6000602082840312156100b757600080fd5b81516001600160a01b03811681146100ce57600080fd5b9392505050565b6107c8806100e46000396000f3fe6080604052600436106100595760003560e01c80636b5e97f814610065578063715018a61461006f5780638da5cb5b146100845780638e288fd1146100ba578063f2fde38b146100da578063f3fef3a3146100fa57600080fd5b3661006057005b600080fd5b61006d61011a565b005b34801561007b57600080fd5b5061006d61036a565b34801561009057600080fd5b506000546001600160a01b03165b6040516001600160a01b03909116815260200160405180910390f35b3480156100c657600080fd5b5060015461009e906001600160a01b031681565b3480156100e657600080fd5b5061006d6100f5366004610646565b61037e565b34801561010657600080fd5b5061006d610115366004610668565b6103fc565b66071afd498d000047101561014257604051638a0d377960e01b815260040160405180910390fd5b600061014f600143610692565b40905061018760405180604001604052806013815260200172189b1bd8dacb9b9d5b58995c88149a59d9d959606a1b815250436104c6565b6001546040805163057ff68760e51b815290516000926001600160a01b03169163affed0e09160048083019260209291908290030181865afa1580156101d1573d6000803e3d6000fd5b505050506040513d601f19601f820116820180604052508101906101f591906106b9565b905061022b6040518060400160405280601281526020017103234b1b29033b0b6b2903737b731b2901d160751b815250826104c6565b600154604080516020810185905260609290921b6bffffffffffffffffffffffff1916908201526054810182905260009060740160408051601f198184030181529190528051602090910120905060006102866010836106d2565b90506102d2604051806040016040528060018152602001600960f81b8152506040518060400160405280600e81526020016d10102934b3b3b2b2102937b6361d60911b8152508361050f565b60058111156102f4576040516301cd2ded60e01b815260040160405180910390fd5b600160009054906101000a90046001600160a01b03166001600160a01b0316637d789dee66071afd498d00006040518263ffffffff1660e01b81526004016000604051808303818588803b15801561034b57600080fd5b505af115801561035f573d6000803e3d6000fd5b505050505050505050565b61037261055b565b61037c60006105b5565b565b61038661055b565b6001600160a01b0381166103f05760405162461bcd60e51b815260206004820152602660248201527f4f776e61626c653a206e6577206f776e657220697320746865207a65726f206160448201526564647265737360d01b60648201526084015b60405180910390fd5b6103f9816105b5565b50565b61040461055b565b478082111561042657604051638a0d377960e01b815260040160405180910390fd5b6000836001600160a01b03168360405160006040518083038185875af1925050503d8060008114610473576040519150601f19603f3d011682016040523d82523d6000602084013e610478565b606091505b50509050806104c05760405162461bcd60e51b81526020600482015260146024820152732330b4b632b2103a379039b2b7321022ba3432b960611b60448201526064016103e7565b50505050565b61050b82826040516024016104dc92919061073a565b60408051601f198184030181529190526020810180516001600160e01b0316632d839cb360e21b179052610605565b5050565b6105568383836040516024016105279392919061075c565b60408051601f198184030181529190526020810180516001600160e01b0316635821efa160e01b179052610605565b505050565b6000546001600160a01b0316331461037c5760405162461bcd60e51b815260206004820181905260248201527f4f776e61626c653a2063616c6c6572206973206e6f7420746865206f776e657260448201526064016103e7565b600080546001600160a01b038381166001600160a01b0319831681178455604051919092169283917f8be0079c531659141344cd1fd0a4f28419497f9722a3daafe3b4186f6b6457e09190a35050565b6103f98160006a636f6e736f6c652e6c6f679050600080835160208501845afa505050565b80356001600160a01b038116811461064157600080fd5b919050565b60006020828403121561065857600080fd5b6106618261062a565b9392505050565b6000806040838503121561067b57600080fd5b6106848361062a565b946020939093013593505050565b818103818111156106b357634e487b7160e01b600052601160045260246000fd5b92915050565b6000602082840312156106cb57600080fd5b5051919050565b6000826106ef57634e487b7160e01b600052601260045260246000fd5b500690565b6000815180845260005b8181101561071a576020818501810151868301820152016106fe565b506000602082860101526020601f19601f83011685010191505092915050565b60408152600061074d60408301856106f4565b90508260208301529392505050565b60608152600061076f60608301866106f4565b828103602084015261078181866106f4565b91505082604083015294935050505056fea2646970667358221220613bfa6c6544ef8263576f29b3f795bea402c254f18d248ec4a118f5a304450a64736f6c63430008110033",
  "devdoc": {
    "kind": "dev",
    "methods": {
      "owner()": {
        "details": "Returns the address of the current owner."
      },
      "renounceOwnership()": {
        "details": "Leaves the contract without owner. It will not be possible to call `onlyOwner` functions anymore. Can only be called by the current owner. NOTE: Renouncing ownership will leave the contract without an owner, thereby removing any functionality that is only available to the owner."
      },
      "transferOwnership(address)": {
        "details": "Transfers ownership of the contract to a new account (`newOwner`). Can only be called by the current owner."
      }
    },
    "version": 1
  },
  "userdoc": {
    "kind": "user",
    "methods": {},
    "version": 1
  },
  "storageLayout": {
    "storage": [
      {
        "astId": 7,
        "contract": "contracts/RiggedRoll.sol:RiggedRoll",
        "label": "_owner",
        "offset": 0,
        "slot": "0",
        "type": "t_address"
      },
      {
        "astId": 316,
        "contract": "contracts/RiggedRoll.sol:RiggedRoll",
        "label": "diceGame",
        "offset": 0,
        "slot": "1",
        "type": "t_contract(DiceGame)306"
      },
      {
        "astId": 319,
        "contract": "contracts/RiggedRoll.sol:RiggedRoll",
        "label": "nonce",
        "offset": 0,
        "slot": "2",
        "type": "t_uint256"
      }
    ],
    "types": {
      "t_address": {
        "encoding": "inplace",
        "label": "address",
        "numberOfBytes": "20"
      },
      "t_contract(DiceGame)306": {
        "encoding": "inplace",
        "label": "contract DiceGame",
        "numberOfBytes": "20"
      },
      "t_uint256": {
        "encoding": "inplace",
        "label": "uint256",
        "numberOfBytes": "32"
      }
    }
  }
}